:1000000000308A0004280000FF238316900000308F
:100010008A00862825308400000803191E28013034
:10002000A100A001A00B1228A10B11284A30A000AA
:10003000A00B182800000000800B0F280034831646
:100040000510831205100830A10000000000000018
:10005000A1173928A113A90C03180514031C0510B6
:10006000211739282113A10B2B28000000000000C4
:1000700005141C308400840B3B2800000000A11BE9
:100080002A28211B322800342408A9001F20A90196
:100090001F202508A9001F20250824077F39A70055
:1000A000A9001F2000342408A9001F200430A90043
:1000B0001F202508A9001F200430240725077F39A9
:1000C000A800A9001F2000342408A9001F20013027
:1000D000A9001F202508A9001F200130240725079B
:1000E0007F39A800A9001F2000342408A9001F2080
:1000F0000530A9001F202508A9001F20053024076E
:1001000025077F39A800A9001F20003484011F3073
:10011000830583160510831205141F1383161F1001
:100120009F101F119F110730831299001F13831610
:100130001F109F101F119F1183121F10831601089B
:10014000C73908388100831290010730990083165F
:10015000050803308312A000A00BAC2819088C11ED
:10016000FE308316990008308312A400FA30A500EF
:100170000A20A40BB628AA30A9001F206430A500CD
:100180000A20A30123087E3C031CD8288430A40045
:100190002308A50044200A30A5000A208430A400CA
:1001A0002308A50053206430A5000A20A30AC22812
:1001B000A30123087E3C031CEF288430A4002308FD
:1001C000A50064200A30A5000A208430A40023087A
:1001D000A50075206430A5000A20A30AD928A30130
:1001E00023087E3C031C06298030A4002308A500B8
:1001F00044200A30A5000A208030A4002308A5006E
:1002000053206430A5000A20A30AF028A301230884
:100210007E3C031C1D298030A4002308A500642017
:100220000A30A5000A208030A4002308A50075200C
:0E0230006430A5000A20A30A0729C128630034
:02400E009431EB
:00000001FF
;PIC12F675
